{"bytecode":"608060405234801561001057600080fd5b50600080546001600160a01b03191633179055610192806100326000396000f3fe6080604052600436106100385760003560e01c806312065fe0146100445780632e1a7d4d146100645780638da5cb5b1461008657600080fd5b3661003f57005b600080fd5b34801561005057600080fd5b506040514781526020015b60405180910390f35b34801561007057600080fd5b5061008461007f366004610143565b6100be565b005b34801561009257600080fd5b506000546100a6906001600160a01b031681565b6040516001600160a01b03909116815260200161005b565b6000546001600160a01b031633146101125760405162461bcd60e51b815260206004820152601360248201527231b0b63632b91034b9903737ba1037bbb732b960691b604482015260640160405180910390fd5b604051339082156108fc029083906000818181858888f1935050505015801561013f573d6000803e3d6000fd5b5050565b60006020828403121561015557600080fd5b503591905056fea2646970667358221220b6ad019adbbb802d70ce21794ca346bfdae260e211f3844333e1dc721ff2967464736f6c634300080c0033","bytecodeSha1":"b1cada81716f60c7f305df06db153a8799a84f9b","type":"contract","abi":[{"inputs":[],"stateMutability":"nonpayable","type":"constructor","name":"constructor"},{"inputs":[],"name":"getBalance","outputs":[{"internalType":"uint256","name":"","type":"uint256"}],"stateMutability":"view","type":"function"},{"inputs":[],"name":"owner","outputs":[{"internalType":"address payable","name":"","type":"address"}],"stateMutability":"view","type":"function"},{"inputs":[{"internalType":"uint256","name":"_amount","type":"uint256"}],"name":"withdraw","outputs":[],"stateMutability":"nonpayable","type":"function"},{"stateMutability":"payable","type":"receive"}],"compiler":{"version":"0.8.12+commit.f00d7308","evm_version":"istanbul","optimizer":{"enabled":true,"runs":200}},"contractName":"Wallet","language":"Solidity","natspec":{"methods":{},"kind":"dev","version":1},"opcodes":"PUSH1 0x80 PUSH1 0x40 MSTORE PUSH1 0x4 CALLDATASIZE LT PUSH2 0x38 JUMPI PUSH1 0x0 CALLDATALOAD PUSH1 0xE0 SHR DUP1 PUSH4 0x12065FE0 EQ PUSH2 0x44 JUMPI DUP1 PUSH4 0x2E1A7D4D EQ PUSH2 0x64 JUMPI DUP1 PUSH4 0x8DA5CB5B EQ PUSH2 0x86 JUMPI PUSH1 0x0 DUP1 REVERT JUMPDEST CALLDATASIZE PUSH2 0x3F JUMPI STOP JUMPDEST PUSH1 0x0 DUP1 REVERT JUMPDEST CALLVALUE DUP1 ISZERO PUSH2 0x50 JUMPI PUSH1 0x0 DUP1 REVERT JUMPDEST POP PUSH1 0x40 MLOAD SELFBALANCE DUP2 MSTORE PUSH1 0x20 ADD JUMPDEST PUSH1 0x40 MLOAD DUP1 SWAP2 SUB SWAP1 RETURN JUMPDEST CALLVALUE DUP1 ISZERO PUSH2 0x70 JUMPI PUSH1 0x0 DUP1 REVERT JUMPDEST POP PUSH2 0x84 PUSH2 0x7F CALLDATASIZE PUSH1 0x4 PUSH2 0x143 JUMP JUMPDEST PUSH2 0xBE JUMP JUMPDEST STOP JUMPDEST CALLVALUE DUP1 ISZERO PUSH2 0x92 JUMPI PUSH1 0x0 DUP1 REVERT JUMPDEST POP PUSH1 0x0 SLOAD PUSH2 0xA6 SWAP1 PUSH1 0x1 PUSH1 0x1 PUSH1 0xA0 SHL SUB AND DUP2 JUMP JUMPDEST PUSH1 0x40 MLOAD PUSH1 0x1 PUSH1 0x1 PUSH1 0xA0 SHL SUB SWAP1 SWAP2 AND DUP2 MSTORE PUSH1 0x20 ADD PUSH2 0x5B JUMP JUMPDEST PUSH1 0x0 SLOAD PUSH1 0x1 PUSH1 0x1 PUSH1 0xA0 SHL SUB AND CALLER EQ PUSH2 0x112 JUMPI PUSH1 0x40 MLOAD PUSH3 0x461BCD PUSH1 0xE5 SHL DUP2 MSTORE PUSH1 0x20 PUSH1 0x4 DUP3 ADD MSTORE PUSH1 0x13 PUSH1 0x24 DUP3 ADD MSTORE PUSH19 0x31B0B63632B91034B9903737BA1037BBB732B9 PUSH1 0x69 SHL PUSH1 0x44 DUP3 ADD MSTORE PUSH1 0x64 ADD PUSH1 0x40 MLOAD DUP1 SWAP2 SUB SWAP1 REVERT JUMPDEST PUSH1 0x40 MLOAD CALLER SWAP1 DUP3 ISZERO PUSH2 0x8FC MUL SWAP1 DUP4 SWAP1 PUSH1 0x0 DUP2 DUP2 DUP2 DUP6 DUP9 DUP9 CALL SWAP4 POP POP POP POP ISZERO DUP1 ISZERO PUSH2 0x13F JUMPI RETURNDATASIZE PUSH1 0x0 DUP1 RETURNDATACOPY RETURNDATASIZE PUSH1 0x0 REVERT JUMPDEST POP POP JUMP JUMPDEST PUSH1 0x0 PUSH1 0x20 DUP3 DUP5 SUB SLT ISZERO PUSH2 0x155 JUMPI PUSH1 0x0 DUP1 REVERT JUMPDEST POP CALLDATALOAD SWAP2 SWAP1 POP JUMP INVALID LOG2 PUSH5 0x6970667358 0x22 SLT KECCAK256 0xB6 0xAD ADD SWAP11 0xDB 0xBB DUP1 0x2D PUSH17 0xCE21794CA346BFDAE260E211F3844333E1 0xDC PUSH19 0x1FF2967464736F6C634300080C003300000000 ","sha1":"49534c646f17b953e9ae547f8bf3e07180e841f0","source":"// SPDX-License-Identifier: MIT\npragma solidity ^0.8.0;\n\ncontract Wallet {\n    address payable public owner;\n\n    constructor() {\n        owner = payable(msg.sender);\n    }\n\n    receive() external payable {}\n\n    function withdraw(uint _amount) external {\n        require(msg.sender == owner, \"caller is not owner\");\n        payable(msg.sender).transfer(_amount);\n    }\n\n    function getBalance() external view returns (uint) {\n        return address(this).balance;\n    }\n}\n//","sourcePath":"contracts/Wallet.sol","deployment":{"address":"0x4D0b2fd0e4c586d3226d734D2Dc13A53Daf3a600","chainid":"3","blockHeight":12051893}}