{"bytecode":"608060405234801561001057600080fd5b50600080546001600160a01b03191633179055610213806100326000396000f3fe6080604052600436106100435760003560e01c806312065fe01461004f57806351cff8d91461006f578063830c29ae146100845780638da5cb5b1461009757600080fd5b3661004a57005b600080fd5b34801561005b57600080fd5b506040514781526020015b60405180910390f35b61008261007d3660046101ad565b6100cf565b005b6100826100923660046101ad565b610108565b3480156100a357600080fd5b506000546100b7906001600160a01b031681565b6040516001600160a01b039091168152602001610066565b6040516001600160a01b038216903480156108fc02916000818181858888f19350505050158015610104573d6000803e3d6000fd5b5050565b600080826001600160a01b03163460405160006040518083038185875af1925050503d8060008114610156576040519150601f19603f3d011682016040523d82523d6000602084013e61015b565b606091505b5091509150816101a85760405162461bcd60e51b81526020600482015260146024820152732330b4b632b2103a379039b2b7321022ba3432b960611b604482015260640160405180910390fd5b505050565b6000602082840312156101bf57600080fd5b81356001600160a01b03811681146101d657600080fd5b939250505056fea2646970667358221220afcf1ddbfcf224cc81119ed83db7a1529af98dba3f81e43ee217e00128805d1064736f6c634300080c0033","bytecodeSha1":"63d4970b2bd9f16480db61f4aee983f166c56c8d","type":"contract","abi":[{"inputs":[],"stateMutability":"nonpayable","type":"constructor","name":"constructor"},{"inputs":[],"name":"getBalance","outputs":[{"internalType":"uint256","name":"","type":"uint256"}],"stateMutability":"view","type":"function"},{"inputs":[],"name":"owner","outputs":[{"internalType":"address payable","name":"","type":"address"}],"stateMutability":"view","type":"function"},{"inputs":[{"internalType":"address payable","name":"_to","type":"address"}],"name":"sendViaCall","outputs":[],"stateMutability":"payable","type":"function"},{"inputs":[{"internalType":"address payable","name":"_to","type":"address"}],"name":"withdraw","outputs":[],"stateMutability":"payable","type":"function"},{"stateMutability":"payable","type":"receive"}],"compiler":{"version":"0.8.12+commit.f00d7308","evm_version":"istanbul","optimizer":{"enabled":true,"runs":200}},"contractName":"Wallet","language":"Solidity","natspec":{"methods":{},"kind":"dev","version":1},"opcodes":"PUSH1 0x80 PUSH1 0x40 MSTORE PUSH1 0x4 CALLDATASIZE LT PUSH2 0x43 JUMPI PUSH1 0x0 CALLDATALOAD PUSH1 0xE0 SHR DUP1 PUSH4 0x12065FE0 EQ PUSH2 0x4F JUMPI DUP1 PUSH4 0x51CFF8D9 EQ PUSH2 0x6F JUMPI DUP1 PUSH4 0x830C29AE EQ PUSH2 0x84 JUMPI DUP1 PUSH4 0x8DA5CB5B EQ PUSH2 0x97 JUMPI PUSH1 0x0 DUP1 REVERT JUMPDEST CALLDATASIZE PUSH2 0x4A JUMPI STOP JUMPDEST PUSH1 0x0 DUP1 REVERT JUMPDEST CALLVALUE DUP1 ISZERO PUSH2 0x5B JUMPI PUSH1 0x0 DUP1 REVERT JUMPDEST POP PUSH1 0x40 MLOAD SELFBALANCE DUP2 MSTORE PUSH1 0x20 ADD JUMPDEST PUSH1 0x40 MLOAD DUP1 SWAP2 SUB SWAP1 RETURN JUMPDEST PUSH2 0x82 PUSH2 0x7D CALLDATASIZE PUSH1 0x4 PUSH2 0x1AD JUMP JUMPDEST PUSH2 0xCF JUMP JUMPDEST STOP JUMPDEST PUSH2 0x82 PUSH2 0x92 CALLDATASIZE PUSH1 0x4 PUSH2 0x1AD JUMP JUMPDEST PUSH2 0x108 JUMP JUMPDEST CALLVALUE DUP1 ISZERO PUSH2 0xA3 JUMPI PUSH1 0x0 DUP1 REVERT JUMPDEST POP PUSH1 0x0 SLOAD PUSH2 0xB7 SWAP1 PUSH1 0x1 PUSH1 0x1 PUSH1 0xA0 SHL SUB AND DUP2 JUMP JUMPDEST PUSH1 0x40 MLOAD PUSH1 0x1 PUSH1 0x1 PUSH1 0xA0 SHL SUB SWAP1 SWAP2 AND DUP2 MSTORE PUSH1 0x20 ADD PUSH2 0x66 JUMP JUMPDEST PUSH1 0x40 MLOAD PUSH1 0x1 PUSH1 0x1 PUSH1 0xA0 SHL SUB DUP3 AND SWAP1 CALLVALUE DUP1 ISZERO PUSH2 0x8FC MUL SWAP2 PUSH1 0x0 DUP2 DUP2 DUP2 DUP6 DUP9 DUP9 CALL SWAP4 POP POP POP POP ISZERO DUP1 ISZERO PUSH2 0x104 JUMPI RETURNDATASIZE PUSH1 0x0 DUP1 RETURNDATACOPY RETURNDATASIZE PUSH1 0x0 REVERT JUMPDEST POP POP JUMP JUMPDEST PUSH1 0x0 DUP1 DUP3 PUSH1 0x1 PUSH1 0x1 PUSH1 0xA0 SHL SUB AND CALLVALUE PUSH1 0x40 MLOAD PUSH1 0x0 PUSH1 0x40 MLOAD DUP1 DUP4 SUB DUP2 DUP6 DUP8 GAS CALL SWAP3 POP POP POP RETURNDATASIZE DUP1 PUSH1 0x0 DUP2 EQ PUSH2 0x156 JUMPI PUSH1 0x40 MLOAD SWAP2 POP PUSH1 0x1F NOT PUSH1 0x3F RETURNDATASIZE ADD AND DUP3 ADD PUSH1 0x40 MSTORE RETURNDATASIZE DUP3 MSTORE RETURNDATASIZE PUSH1 0x0 PUSH1 0x20 DUP5 ADD RETURNDATACOPY PUSH2 0x15B JUMP JUMPDEST PUSH1 0x60 SWAP2 POP JUMPDEST POP SWAP2 POP SWAP2 POP DUP2 PUSH2 0x1A8 JUMPI PUSH1 0x40 MLOAD PUSH3 0x461BCD PUSH1 0xE5 SHL DUP2 MSTORE PUSH1 0x20 PUSH1 0x4 DUP3 ADD MSTORE PUSH1 0x14 PUSH1 0x24 DUP3 ADD MSTORE PUSH20 0x2330B4B632B2103A379039B2B7321022BA3432B9 PUSH1 0x61 SHL PUSH1 0x44 DUP3 ADD MSTORE PUSH1 0x64 ADD PUSH1 0x40 MLOAD DUP1 SWAP2 SUB SWAP1 REVERT JUMPDEST POP POP POP JUMP JUMPDEST PUSH1 0x0 PUSH1 0x20 DUP3 DUP5 SUB SLT ISZERO PUSH2 0x1BF JUMPI PUSH1 0x0 DUP1 REVERT JUMPDEST DUP2 CALLDATALOAD PUSH1 0x1 PUSH1 0x1 PUSH1 0xA0 SHL SUB DUP2 AND DUP2 EQ PUSH2 0x1D6 JUMPI PUSH1 0x0 DUP1 REVERT JUMPDEST SWAP4 SWAP3 POP POP POP JUMP INVALID LOG2 PUSH5 0x6970667358 0x22 SLT KECCAK256 0xAF 0xCF SAR 0xDB 0xFC CALLCODE 0x24 0xCC DUP2 GT SWAP15 0xD8 RETURNDATASIZE 0xB7 LOG1 MSTORE SWAP11 0xF9 DUP14 0xBA EXTCODEHASH DUP2 0xE4 RETURNDATACOPY 0xE2 OR 0xE0 ADD 0x28 DUP1 0x5D LT PUSH5 0x736F6C6343 STOP ADDMOD 0xC STOP CALLER ","sha1":"1279425836aabdd7ad838d901fb528dd201dcb29","source":"// SPDX-License-Identifier: MIT\npragma solidity ^0.8.0;\n\ncontract Wallet {\n    address payable public owner;\n\n    constructor() {\n        owner = payable(msg.sender);\n    }\n\n    receive() external payable {}\n\n    function withdraw(address payable _to) external payable{\n        // require(msg.sender == owner, \"caller is not owner\");\n        _to.transfer(msg.value);\n    }\n\n    function getBalance() external view returns (uint) {\n        return address(this).balance;\n    }\n\n    function sendViaCall(address payable _to) public payable {\n        // Call returns a boolean value indicating success or failure.\n        // This is the current recommended method to use.\n        (bool sent, bytes memory data) = _to.call{value: msg.value}(\"\");\n        require(sent, \"Failed to send Ether\");\n    }\n}\n//0x4D0b2fd0e4c586d3226d734D2Dc13A53Daf3a600\n//0x67d06397AD91Aeb44b22C5291814C437Fb05059E","sourcePath":"contracts/Wallet.sol","deployment":{"address":"0xfa46491dEC57C485b3c08889a3fab7050cC2c1d4","chainid":"3","blockHeight":12055793}}